{
  "contractName": "TeamTokensVault",
  "abi": [
    {
      "inputs": [
        {
          "name": "_teamWallet",
          "type": "address"
        },
        {
          "name": "_token",
          "type": "address"
        },
        {
          "name": "_tokensCountPerYear",
          "type": "uint256"
        }
      ],
      "payable": false,
      "stateMutability": "nonpayable",
      "type": "constructor"
    },
    {
      "constant": false,
      "inputs": [],
      "name": "claimTokensForTeamWallet",
      "outputs": [],
      "payable": false,
      "stateMutability": "nonpayable",
      "type": "function"
    },
    {
      "constant": true,
      "inputs": [],
      "name": "isAvailableForClaim",
      "outputs": [
        {
          "name": "",
          "type": "bool"
        }
      ],
      "payable": false,
      "stateMutability": "view",
      "type": "function"
    }
  ],
  "bytecode": "0x608060405234801561001057600080fd5b5060405160608061041d833981018060405281019080805190602001909291908051906020019092919080519060200190929190505050826000806101000a81548173ffffffffffffffffffffffffffffffffffffffff021916908373ffffffffffffffffffffffffffffffffffffffff16021790555081600160006101000a81548173ffffffffffffffffffffffffffffffffffffffff021916908373ffffffffffffffffffffffffffffffffffffffff160217905550806002819055506100e66100ee640100000000026401000000009004565b5050506100fd565b6301e133804201600381905550565b6103118061010c6000396000f30060806040526004361061004c576000357c0100000000000000000000000000000000000000000000000000000000900463ffffffff1680639045a2df14610051578063ae286fc914610080575b600080fd5b34801561005d57600080fd5b50610066610097565b604051808215151515815260200191505060405180910390f35b34801561008c57600080fd5b506100956100a4565b005b6000600354421015905090565b600254600160009054906101000a900473ffffffffffffffffffffffffffffffffffffffff1673ffffffffffffffffffffffffffffffffffffffff166370a08231306040518263ffffffff167c0100000000000000000000000000000000000000000000000000000000028152600401808273ffffffffffffffffffffffffffffffffffffffff1673ffffffffffffffffffffffffffffffffffffffff168152602001915050602060405180830381600087803b15801561016457600080fd5b505af1158015610178573d6000803e3d6000fd5b505050506040513d602081101561018e57600080fd5b8101908080519060200190929190505050101515156101ac57600080fd5b6101b4610097565b15156101bf57600080fd5b600160009054906101000a900473ffffffffffffffffffffffffffffffffffffffff1673ffffffffffffffffffffffffffffffffffffffff1663a9059cbb6000809054906101000a900473ffffffffffffffffffffffffffffffffffffffff166002546040518363ffffffff167c0100000000000000000000000000000000000000000000000000000000028152600401808373ffffffffffffffffffffffffffffffffffffffff1673ffffffffffffffffffffffffffffffffffffffff16815260200182815260200192505050602060405180830381600087803b1580156102a757600080fd5b505af11580156102bb573d6000803e3d6000fd5b505050506040513d60208110156102d157600080fd5b8101908080519060200190929190505050505600a165627a7a723058201e0d7213bca17e5d85d318c0773ed4dd7df21ff1c851c97fd8bcf8e9962d230d0029",
  "source": "pragma solidity ^0.4.24;\n\nimport \"openzeppelin-solidity/contracts/token/ERC20/ERC20.sol\";\n\n\ncontract TeamTokensVault {\n    address internal teamWallet;\n    ERC20 internal token;\n    uint internal tokensPerYear;\n    uint internal timeAvailableForClaim;\n\n    constructor(address _teamWallet, ERC20 _token, uint _tokensCountPerYear) public{\n        teamWallet = _teamWallet;\n        token = ERC20(_token);\n        tokensPerYear = _tokensCountPerYear;\n        updateTime();\n    }\n\n    function claimTokensForTeamWallet() public {\n        require(token.balanceOf(address(this)) >= tokensPerYear);\n        require(isAvailableForClaim());\n        token.transfer(teamWallet, tokensPerYear);\n    }\n\n    function updateTime() internal {\n        timeAvailableForClaim = block.timestamp + 365 days;\n    }\n\n    function isAvailableForClaim() public view returns (bool) {\n        return block.timestamp >= timeAvailableForClaim;\n    }\n}\n",
  "sourcePath": "/Users/developer/Projects/bxlend/contracts/TeamTokensVault.sol",
  "compiler": {
    "name": "solc",
    "version": "0.4.24+commit.e67f0147.Emscripten.clang"
  },
  "schemaVersion": "2.0.1",
  "updatedAt": "2018-09-04T10:58:50.865Z"
}