{
  "contractName": "TokenStrategy",
  "abi": [
    {
      "constant": true,
      "inputs": [],
      "name": "startPublicSale",
      "outputs": [
        {
          "name": "",
          "type": "uint256"
        }
      ],
      "payable": false,
      "stateMutability": "view",
      "type": "function"
    },
    {
      "constant": true,
      "inputs": [],
      "name": "tokensAvailableForPresale",
      "outputs": [
        {
          "name": "",
          "type": "uint256"
        }
      ],
      "payable": false,
      "stateMutability": "view",
      "type": "function"
    },
    {
      "constant": true,
      "inputs": [],
      "name": "minTransactionAmount",
      "outputs": [
        {
          "name": "",
          "type": "uint256"
        }
      ],
      "payable": false,
      "stateMutability": "view",
      "type": "function"
    },
    {
      "constant": true,
      "inputs": [],
      "name": "rate",
      "outputs": [
        {
          "name": "",
          "type": "uint256"
        }
      ],
      "payable": false,
      "stateMutability": "view",
      "type": "function"
    },
    {
      "constant": true,
      "inputs": [],
      "name": "goalUSD",
      "outputs": [
        {
          "name": "",
          "type": "uint256"
        }
      ],
      "payable": false,
      "stateMutability": "view",
      "type": "function"
    },
    {
      "constant": true,
      "inputs": [],
      "name": "tokensForAdvisors",
      "outputs": [
        {
          "name": "",
          "type": "uint256"
        }
      ],
      "payable": false,
      "stateMutability": "view",
      "type": "function"
    },
    {
      "constant": true,
      "inputs": [],
      "name": "tokensForUserIncentives",
      "outputs": [
        {
          "name": "",
          "type": "uint256"
        }
      ],
      "payable": false,
      "stateMutability": "view",
      "type": "function"
    },
    {
      "constant": true,
      "inputs": [],
      "name": "goal",
      "outputs": [
        {
          "name": "",
          "type": "uint256"
        }
      ],
      "payable": false,
      "stateMutability": "view",
      "type": "function"
    },
    {
      "constant": true,
      "inputs": [],
      "name": "tokensForBounty",
      "outputs": [
        {
          "name": "",
          "type": "uint256"
        }
      ],
      "payable": false,
      "stateMutability": "view",
      "type": "function"
    },
    {
      "constant": true,
      "inputs": [],
      "name": "weiPerCent",
      "outputs": [
        {
          "name": "",
          "type": "uint256"
        }
      ],
      "payable": false,
      "stateMutability": "view",
      "type": "function"
    },
    {
      "constant": true,
      "inputs": [],
      "name": "tokensAvailableForSale",
      "outputs": [
        {
          "name": "",
          "type": "uint256"
        }
      ],
      "payable": false,
      "stateMutability": "view",
      "type": "function"
    },
    {
      "constant": true,
      "inputs": [],
      "name": "tokensForTeam",
      "outputs": [
        {
          "name": "",
          "type": "uint256"
        }
      ],
      "payable": false,
      "stateMutability": "view",
      "type": "function"
    },
    {
      "inputs": [
        {
          "name": "_startPublicSale",
          "type": "uint256"
        },
        {
          "name": "_weiPerCent",
          "type": "uint256"
        },
        {
          "name": "_rate",
          "type": "uint256"
        },
        {
          "name": "_goal",
          "type": "uint256"
        },
        {
          "name": "_goalUSD",
          "type": "uint256"
        }
      ],
      "payable": false,
      "stateMutability": "nonpayable",
      "type": "constructor"
    },
    {
      "payable": true,
      "stateMutability": "payable",
      "type": "fallback"
    },
    {
      "anonymous": false,
      "inputs": [
        {
          "indexed": false,
          "name": "_message",
          "type": "string"
        }
      ],
      "name": "LogNewOraclizeQuery",
      "type": "event"
    },
    {
      "constant": false,
      "inputs": [
        {
          "name": "myid",
          "type": "bytes32"
        },
        {
          "name": "result",
          "type": "string"
        }
      ],
      "name": "__callback",
      "outputs": [],
      "payable": false,
      "stateMutability": "nonpayable",
      "type": "function"
    },
    {
      "constant": false,
      "inputs": [
        {
          "name": "myid",
          "type": "bytes32"
        },
        {
          "name": "result",
          "type": "string"
        },
        {
          "name": "proof",
          "type": "bytes"
        }
      ],
      "name": "__callback",
      "outputs": [],
      "payable": false,
      "stateMutability": "nonpayable",
      "type": "function"
    },
    {
      "constant": false,
      "inputs": [],
      "name": "updatePrice",
      "outputs": [],
      "payable": true,
      "stateMutability": "payable",
      "type": "function"
    },
    {
      "constant": false,
      "inputs": [
        {
          "name": "_weiAmount",
          "type": "uint256"
        },
        {
          "name": "_isPresale",
          "type": "bool"
        }
      ],
      "name": "getTokenAmount",
      "outputs": [
        {
          "name": "",
          "type": "uint256"
        }
      ],
      "payable": false,
      "stateMutability": "nonpayable",
      "type": "function"
    },
    {
      "constant": true,
      "inputs": [
        {
          "name": "_weiRaised",
          "type": "uint256"
        }
      ],
      "name": "goalReachedPercent",
      "outputs": [
        {
          "name": "",
          "type": "uint256"
        }
      ],
      "payable": false,
      "stateMutability": "view",
      "type": "function"
    },
    {
      "constant": true,
      "inputs": [
        {
          "name": "_weiRaised",
          "type": "uint256"
        }
      ],
      "name": "goalReached",
      "outputs": [
        {
          "name": "",
          "type": "bool"
        }
      ],
      "payable": false,
      "stateMutability": "view",
      "type": "function"
    }
  ],
  "bytecode": "0x608060405267016345785d8a00006005556a0c685fa11e01ec6f0000006006556a0c685fa11e01ec6f0000006007556a0ac0db698068112d0000006008556a04f68ca6d8cd91c600000060095569d3c21bcecceda1000000600a5569d3c21bcecceda1000000600b553480156200007557600080fd5b5060405160a08062002bf08339810180604052810190808051906020019092919080519060200190929190805190602001909291908051906020019092919080519060200190929190505050600082111515620000d157600080fd5b84600c8190555083600e8190555082600d8190555081600f819055508060108190555033601160006101000a81548173ffffffffffffffffffffffffffffffffffffffff021916908373ffffffffffffffffffffffffffffffffffffffff1602179055506200015d6213c680600c5462000244640100000000026200052e179091906401000000009004565b6013819055506200018b620fd200600c5462000244640100000000026200052e179091906401000000009004565b601481905550620001b9620bdd80600c5462000244640100000000026200052e179091906401000000009004565b601581905550620001e76207e900600c5462000244640100000000026200052e179091906401000000009004565b601681905550620002156203f480600c5462000244640100000000026200052e179091906401000000009004565b60178190555062000239637735940062000261640100000000026401000000009004565b505050505062000c21565b600081830190508281101515156200025857fe5b80905092915050565b60008060009054906101000a900473ffffffffffffffffffffffffffffffffffffffff1673ffffffffffffffffffffffffffffffffffffffff161480620002e257506000620002e06000809054906101000a900473ffffffffffffffffffffffffffffffffffffffff16620005d1640100000000026401000000009004565b145b156200030557620003036000620005dc640100000000026401000000009004565b505b6000809054906101000a900473ffffffffffffffffffffffffffffffffffffffff1673ffffffffffffffffffffffffffffffffffffffff166338cc48316040518163ffffffff167c0100000000000000000000000000000000000000000000000000000000028152600401602060405180830381600087803b1580156200038b57600080fd5b505af1158015620003a0573d6000803e3d6000fd5b505050506040513d6020811015620003b757600080fd5b810190808051906020019092919050505073ffffffffffffffffffffffffffffffffffffffff16600160009054906101000a900473ffffffffffffffffffffffffffffffffffffffff1673ffffffffffffffffffffffffffffffffffffffff1614151562000523576000809054906101000a900473ffffffffffffffffffffffffffffffffffffffff1673ffffffffffffffffffffffffffffffffffffffff166338cc48316040518163ffffffff167c0100000000000000000000000000000000000000000000000000000000028152600401602060405180830381600087803b158015620004a557600080fd5b505af1158015620004ba573d6000803e3d6000fd5b505050506040513d6020811015620004d157600080fd5b8101908080519060200190929190505050600160006101000a81548173ffffffffffffffffffffffffffffffffffffffff021916908373ffffffffffffffffffffffffffffffffffffffff1602179055505b600160009054906101000a900473ffffffffffffffffffffffffffffffffffffffff1673ffffffffffffffffffffffffffffffffffffffff1663ca6ad1e4826040518263ffffffff167c010000000000000000000000000000000000000000000000000000000002815260040180828152602001915050600060405180830381600087803b158015620005b557600080fd5b505af1158015620005ca573d6000803e3d6000fd5b5050505050565b6000813b9050919050565b6000620005f7620005fe640100000000026401000000009004565b9050919050565b6000806200062f731d3b2638a7cc9f2cb3d298a3da7a90b67e5506ed620005d1640100000000026401000000009004565b1115620006e357731d3b2638a7cc9f2cb3d298a3da7a90b67e5506ed6000806101000a81548173ffffffffffffffffffffffffffffffffffffffff021916908373ffffffffffffffffffffffffffffffffffffffff160217905550620006d96040805190810160405280600b81526020017f6574685f6d61696e6e657400000000000000000000000000000000000000000081525062000b56640100000000026401000000009004565b6001905062000b53565b60006200071373c03a2615d5efaf5f49f60b7bb6583eaec212fdf1620005d1640100000000026401000000009004565b1115620007c75773c03a2615d5efaf5f49f60b7bb6583eaec212fdf16000806101000a81548173ffffffffffffffffffffffffffffffffffffffff021916908373ffffffffffffffffffffffffffffffffffffffff160217905550620007bd6040805190810160405280600c81526020017f6574685f726f707374656e33000000000000000000000000000000000000000081525062000b56640100000000026401000000009004565b6001905062000b53565b6000620007f773b7a07bcf2ba2f2703b24c0691b5278999c59ac7e620005d1640100000000026401000000009004565b1115620008ab5773b7a07bcf2ba2f2703b24c0691b5278999c59ac7e6000806101000a81548173ffffffffffffffffffffffffffffffffffffffff021916908373ffffffffffffffffffffffffffffffffffffffff160217905550620008a16040805190810160405280600981526020017f6574685f6b6f76616e000000000000000000000000000000000000000000000081525062000b56640100000000026401000000009004565b6001905062000b53565b6000620008db73146500cfd35b22e4a392fe0adc06de1a1368ed48620005d1640100000000026401000000009004565b11156200098f5773146500cfd35b22e4a392fe0adc06de1a1368ed486000806101000a81548173ffffffffffffffffffffffffffffffffffffffff021916908373ffffffffffffffffffffffffffffffffffffffff160217905550620009856040805190810160405280600b81526020017f6574685f72696e6b65627900000000000000000000000000000000000000000081525062000b56640100000000026401000000009004565b6001905062000b53565b6000620009bf736f485c8bf6fc43ea212e93bbf8ce046c7f1cb475620005d1640100000000026401000000009004565b111562000a2457736f485c8bf6fc43ea212e93bbf8ce046c7f1cb4756000806101000a81548173ffffffffffffffffffffffffffffffffffffffff021916908373ffffffffffffffffffffffffffffffffffffffff1602179055506001905062000b53565b600062000a547320e12a1f859b3feae5fb2a0a32c18f5a65555bbf620005d1640100000000026401000000009004565b111562000ab9577320e12a1f859b3feae5fb2a0a32c18f5a65555bbf6000806101000a81548173ffffffffffffffffffffffffffffffffffffffff021916908373ffffffffffffffffffffffffffffffffffffffff1602179055506001905062000b53565b600062000ae97351efaf4c8b3c9afbd5ab9f4bbc82784ab6ef8faa620005d1640100000000026401000000009004565b111562000b4e577351efaf4c8b3c9afbd5ab9f4bbc82784ab6ef8faa6000806101000a81548173ffffffffffffffffffffffffffffffffffffffff021916908373ffffffffffffffffffffffffffffffffffffffff1602179055506001905062000b53565b600090505b90565b806002908051906020019062000b6e92919062000b72565b5050565b828054600181600116156101000203166002900490600052602060002090601f016020900481019282601f1062000bb557805160ff191683800117855562000be6565b8280016001018555821562000be6579182015b8281111562000be557825182559160200191906001019062000bc8565b5b50905062000bf5919062000bf9565b5090565b62000c1e91905b8082111562000c1a57600081600090555060010162000c00565b5090565b90565b611fbf8062000c316000396000f3006080604052600436106100fc576000357c0100000000000000000000000000000000000000000000000000000000900463ffffffff1680630c1c972a146101195780630da256571461014457806317a5d4df1461016f57806327dc297e1461019a5780632c4e722e146102115780632f9998591461023c57806335b6a6c61461026757806338bbfa50146102925780633f9bfe011461034f578063401938831461037a5780634317725e146103a5578063644280e2146103f2578063673a7e281461041d578063729c521c14610427578063852156f81461046c578063bdeb9fb414610497578063de262f84146104c2578063fde83a3414610503575b6101113460125461052e90919063ffffffff16565b601281905550005b34801561012557600080fd5b5061012e61054a565b6040518082815260200191505060405180910390f35b34801561015057600080fd5b50610159610550565b6040518082815260200191505060405180910390f35b34801561017b57600080fd5b50610184610556565b6040518082815260200191505060405180910390f35b3480156101a657600080fd5b5061020f6004803603810190808035600019169060200190929190803590602001908201803590602001908080601f016020809104026020016040519081016040528093929190818152602001838380828437820191505050505050919291929050505061055c565b005b34801561021d57600080fd5b506102266105e9565b6040518082815260200191505060405180910390f35b34801561024857600080fd5b506102516105ef565b6040518082815260200191505060405180910390f35b34801561027357600080fd5b5061027c6105f5565b6040518082815260200191505060405180910390f35b34801561029e57600080fd5b5061034d6004803603810190808035600019169060200190929190803590602001908201803590602001908080601f0160208091040260200160405190810160405280939291908181526020018383808284378201915050505050509192919290803590602001908201803590602001908080601f01602080910402602001604051908101604052809392919081815260200183838082843782019150505050505091929192905050506105fb565b005b34801561035b57600080fd5b50610364610600565b6040518082815260200191505060405180910390f35b34801561038657600080fd5b5061038f610606565b6040518082815260200191505060405180910390f35b3480156103b157600080fd5b506103dc6004803603810190808035906020019092919080351515906020019092919050505061060c565b6040518082815260200191505060405180910390f35b3480156103fe57600080fd5b506104076106a8565b6040518082815260200191505060405180910390f35b6104256106ae565b005b34801561043357600080fd5b5061045260048036038101908080359060200190929190505050610990565b604051808215151515815260200191505060405180910390f35b34801561047857600080fd5b5061048161099f565b6040518082815260200191505060405180910390f35b3480156104a357600080fd5b506104ac6109a5565b6040518082815260200191505060405180910390f35b3480156104ce57600080fd5b506104ed600480360381019080803590602001909291905050506109ab565b6040518082815260200191505060405180910390f35b34801561050f57600080fd5b506105186109dc565b6040518082815260200191505060405180910390f35b6000818301905082811015151561054157fe5b80905092915050565b600c5481565b60065481565b60055481565b6105646109e2565b73ffffffffffffffffffffffffffffffffffffffff163373ffffffffffffffffffffffffffffffffffffffff1614151561059d57600080fd5b6105a8816002610d40565b670de0b6b3a76400008115156105ba57fe5b04600e819055506010546064600e540202600f819055506019600e5402600d819055506105e56106ae565b5050565b600d5481565b60105481565b600a5481565b505050565b60085481565b600f5481565b6000806000670de0b6b3a764000061062f600d5487610f4190919063ffffffff16565b02915083156106485761064185610f57565b9050610653565b610650610fe5565b90505b6000811415610664578192506106a0565b61069d61068e6103e8610680848661104e90919063ffffffff16565b610f4190919063ffffffff16565b8361052e90919063ffffffff16565b92505b505092915050565b600b5481565b601160009054906101000a900473ffffffffffffffffffffffffffffffffffffffff1673ffffffffffffffffffffffffffffffffffffffff163373ffffffffffffffffffffffffffffffffffffffff16148061073c575061070d6109e2565b73ffffffffffffffffffffffffffffffffffffffff163373ffffffffffffffffffffffffffffffffffffffff16145b151561074757600080fd5b3073ffffffffffffffffffffffffffffffffffffffff163161079d6040805190810160405280600381526020017f55524c0000000000000000000000000000000000000000000000000000000000815250611086565b111561085c577f621c2856e3b87f81235f8ac8a22bbb40a0142961960710d00b2b6c380902b57e60405180806020018281038252604b8152602001807f4f7261636c697a6520717565727920776173204e4f542073656e742c20706c6581526020017f6173652061646420736f6d652045544820746f20636f76657220666f7220746881526020017f652071756572792066656500000000000000000000000000000000000000000081525060600191505060405180910390a161098e565b7f621c2856e3b87f81235f8ac8a22bbb40a0142961960710d00b2b6c380902b57e6040518080602001828103825260358152602001807f4f7261636c697a65207175657279207761732073656e742c207374616e64696e81526020017f6720627920666f722074686520616e737765722e2e000000000000000000000081525060400191505060405180910390a161098c6101686040805190810160405280600381526020017f55524c0000000000000000000000000000000000000000000000000000000000815250606060405190810160405280603881526020017f6a736f6e2868747470733a2f2f6170692e676461782e636f6d2f70726f64756381526020017f74732f4554482d5553442f7469636b6572292e70726963650000000000000000815250620186a0611456565b505b565b6000600f548210159050919050565b600e5481565b60075481565b60006109d5600f546109c760648561104e90919063ffffffff16565b610f4190919063ffffffff16565b9050919050565b60095481565b6000806000809054906101000a900473ffffffffffffffffffffffffffffffffffffffff1673ffffffffffffffffffffffffffffffffffffffff161480610a5257506000610a506000809054906101000a900473ffffffffffffffffffffffffffffffffffffffff16611a06565b145b15610a6357610a616000611a11565b505b6000809054906101000a900473ffffffffffffffffffffffffffffffffffffffff1673ffffffffffffffffffffffffffffffffffffffff166338cc48316040518163ffffffff167c0100000000000000000000000000000000000000000000000000000000028152600401602060405180830381600087803b158015610ae857600080fd5b505af1158015610afc573d6000803e3d6000fd5b505050506040513d6020811015610b1257600080fd5b810190808051906020019092919050505073ffffffffffffffffffffffffffffffffffffffff16600160009054906101000a900473ffffffffffffffffffffffffffffffffffffffff1673ffffffffffffffffffffffffffffffffffffffff16141515610c7a576000809054906101000a900473ffffffffffffffffffffffffffffffffffffffff1673ffffffffffffffffffffffffffffffffffffffff166338cc48316040518163ffffffff167c0100000000000000000000000000000000000000000000000000000000028152600401602060405180830381600087803b158015610bfe57600080fd5b505af1158015610c12573d6000803e3d6000fd5b505050506040513d6020811015610c2857600080fd5b8101908080519060200190929190505050600160006101000a81548173ffffffffffffffffffffffffffffffffffffffff021916908373ffffffffffffffffffffffffffffffffffffffff1602179055505b600160009054906101000a900473ffffffffffffffffffffffffffffffffffffffff1673ffffffffffffffffffffffffffffffffffffffff1663c281d19e6040518163ffffffff167c0100000000000000000000000000000000000000000000000000000000028152600401602060405180830381600087803b158015610d0057600080fd5b505af1158015610d14573d6000803e3d6000fd5b505050506040513d6020811015610d2a57600080fd5b8101908080519060200190929190505050905090565b600060606000806000806000806000808b9850600099508851945084806001900395505060009350600097505b8851881015610e47578888815181101515610d8457fe5b9060200101517f010000000000000000000000000000000000000000000000000000000000000090047f0100000000000000000000000000000000000000000000000000000000000000027f01000000000000000000000000000000000000000000000000000000000000009004925060308310158015610e06575060398311155b15610e285760308303600a8b0201995086806001019750508480600190039550505b602e831415610e3a5760019350610e47565b8780600101985050610d6d565b8315610f2f576001870191505b8a6001880101821015610f2e578882815181101515610e6f57fe5b9060200101517f010000000000000000000000000000000000000000000000000000000000000090047f0100000000000000000000000000000000000000000000000000000000000000027f01000000000000000000000000000000000000000000000000000000000000009004905060308110158015610ef1575060398111155b15610f135760308103600a8b0201995085806001019650508480600190039550505b6000851415610f2157610f2e565b8180600101925050610e54565b5b89995050505050505050505092915050565b60008183811515610f4e57fe5b04905092915050565b600080610f6383611a22565b90506127108110158015610f7a5750620186a08111155b1515610f8557600080fd5b6127108110158015610f9957506161a88111155b15610fa85761012c9150610fdf565b6161a881118015610fbb575061c3508111155b15610fca5761015e9150610fdf565b61c350811115610fde576101909150610fdf565b5b50919050565b6000601354421115610ffa576000905061104b565b60145442111561100d576019905061104b565b601554421115611020576032905061104b565b601654421115611033576064905061104b565b601754421115611046576096905061104b565b60c890505b90565b6000808314156110615760009050611080565b818302905081838281151561107257fe5b0414151561107c57fe5b8090505b92915050565b6000806000809054906101000a900473ffffffffffffffffffffffffffffffffffffffff1673ffffffffffffffffffffffffffffffffffffffff1614806110f6575060006110f46000809054906101000a900473ffffffffffffffffffffffffffffffffffffffff16611a06565b145b15611107576111056000611a11565b505b6000809054906101000a900473ffffffffffffffffffffffffffffffffffffffff1673ffffffffffffffffffffffffffffffffffffffff166338cc48316040518163ffffffff167c0100000000000000000000000000000000000000000000000000000000028152600401602060405180830381600087803b15801561118c57600080fd5b505af11580156111a0573d6000803e3d6000fd5b505050506040513d60208110156111b657600080fd5b810190808051906020019092919050505073ffffffffffffffffffffffffffffffffffffffff16600160009054906101000a900473ffffffffffffffffffffffffffffffffffffffff1673ffffffffffffffffffffffffffffffffffffffff1614151561131e576000809054906101000a900473ffffffffffffffffffffffffffffffffffffffff1673ffffffffffffffffffffffffffffffffffffffff166338cc48316040518163ffffffff167c0100000000000000000000000000000000000000000000000000000000028152600401602060405180830381600087803b1580156112a257600080fd5b505af11580156112b6573d6000803e3d6000fd5b505050506040513d60208110156112cc57600080fd5b8101908080519060200190929190505050600160006101000a81548173ffffffffffffffffffffffffffffffffffffffff021916908373ffffffffffffffffffffffffffffffffffffffff1602179055505b600160009054906101000a900473ffffffffffffffffffffffffffffffffffffffff1673ffffffffffffffffffffffffffffffffffffffff1663524f3889836040518263ffffffff167c01000000000000000000000000000000000000000000000000000000000281526004018080602001828103825283818151815260200191508051906020019080838360005b838110156113c85780820151818401526020810190506113ad565b50505050905090810190601f1680156113f55780820380516001836020036101000a031916815260200191505b5092505050602060405180830381600087803b15801561141457600080fd5b505af1158015611428573d6000803e3d6000fd5b505050506040513d602081101561143e57600080fd5b81019080805190602001909291905050509050919050565b60008060008060009054906101000a900473ffffffffffffffffffffffffffffffffffffffff1673ffffffffffffffffffffffffffffffffffffffff1614806114c8575060006114c66000809054906101000a900473ffffffffffffffffffffffffffffffffffffffff16611a06565b145b156114d9576114d76000611a11565b505b6000809054906101000a900473ffffffffffffffffffffffffffffffffffffffff1673ffffffffffffffffffffffffffffffffffffffff166338cc48316040518163ffffffff167c0100000000000000000000000000000000000000000000000000000000028152600401602060405180830381600087803b15801561155e57600080fd5b505af1158015611572573d6000803e3d6000fd5b505050506040513d602081101561158857600080fd5b810190808051906020019092919050505073ffffffffffffffffffffffffffffffffffffffff16600160009054906101000a900473ffffffffffffffffffffffffffffffffffffffff1673ffffffffffffffffffffffffffffffffffffffff161415156116f0576000809054906101000a900473ffffffffffffffffffffffffffffffffffffffff1673ffffffffffffffffffffffffffffffffffffffff166338cc48316040518163ffffffff167c0100000000000000000000000000000000000000000000000000000000028152600401602060405180830381600087803b15801561167457600080fd5b505af1158015611688573d6000803e3d6000fd5b505050506040513d602081101561169e57600080fd5b8101908080519060200190929190505050600160006101000a81548173ffffffffffffffffffffffffffffffffffffffff021916908373ffffffffffffffffffffffffffffffffffffffff1602179055505b600160009054906101000a900473ffffffffffffffffffffffffffffffffffffffff1673ffffffffffffffffffffffffffffffffffffffff16632ef3accc86856040518363ffffffff167c01000000000000000000000000000000000000000000000000000000000281526004018080602001838152602001828103825284818151815260200191508051906020019080838360005b838110156117a1578082015181840152602081019050611786565b50505050905090810190601f1680156117ce5780820380516001836020036101000a031916815260200191505b509350505050602060405180830381600087803b1580156117ee57600080fd5b505af1158015611802573d6000803e3d6000fd5b505050506040513d602081101561181857600080fd5b81019080805190602001909291905050509050823a02670de0b6b3a76400000181111561184b57600060010291506119fd565b600160009054906101000a900473ffffffffffffffffffffffffffffffffffffffff1673ffffffffffffffffffffffffffffffffffffffff1663c51be90f82888888886040518663ffffffff167c0100000000000000000000000000000000000000000000000000000000028152600401808581526020018060200180602001848152602001838103835286818151815260200191508051906020019080838360005b838110156119095780820151818401526020810190506118ee565b50505050905090810190601f1680156119365780820380516001836020036101000a031916815260200191505b50838103825285818151815260200191508051906020019080838360005b8381101561196f578082015181840152602081019050611954565b50505050905090810190601f16801561199c5780820380516001836020036101000a031916815260200191505b5096505050505050506020604051808303818588803b1580156119be57600080fd5b505af11580156119d2573d6000803e3d6000fd5b50505050506040513d60208110156119e957600080fd5b810190808051906020019092919050505091505b50949350505050565b6000813b9050919050565b6000611a1b611a45565b9050919050565b60006064600e5483811515611a3357fe5b04811515611a3d57fe5b049050919050565b600080611a65731d3b2638a7cc9f2cb3d298a3da7a90b67e5506ed611a06565b1115611b0657731d3b2638a7cc9f2cb3d298a3da7a90b67e5506ed6000806101000a81548173ffffffffffffffffffffffffffffffffffffffff021916908373ffffffffffffffffffffffffffffffffffffffff160217905550611afd6040805190810160405280600b81526020017f6574685f6d61696e6e6574000000000000000000000000000000000000000000815250611ed4565b60019050611ed1565b6000611b2573c03a2615d5efaf5f49f60b7bb6583eaec212fdf1611a06565b1115611bc65773c03a2615d5efaf5f49f60b7bb6583eaec212fdf16000806101000a81548173ffffffffffffffffffffffffffffffffffffffff021916908373ffffffffffffffffffffffffffffffffffffffff160217905550611bbd6040805190810160405280600c81526020017f6574685f726f707374656e330000000000000000000000000000000000000000815250611ed4565b60019050611ed1565b6000611be573b7a07bcf2ba2f2703b24c0691b5278999c59ac7e611a06565b1115611c865773b7a07bcf2ba2f2703b24c0691b5278999c59ac7e6000806101000a81548173ffffffffffffffffffffffffffffffffffffffff021916908373ffffffffffffffffffffffffffffffffffffffff160217905550611c7d6040805190810160405280600981526020017f6574685f6b6f76616e0000000000000000000000000000000000000000000000815250611ed4565b60019050611ed1565b6000611ca573146500cfd35b22e4a392fe0adc06de1a1368ed48611a06565b1115611d465773146500cfd35b22e4a392fe0adc06de1a1368ed486000806101000a81548173ffffffffffffffffffffffffffffffffffffffff021916908373ffffffffffffffffffffffffffffffffffffffff160217905550611d3d6040805190810160405280600b81526020017f6574685f72696e6b656279000000000000000000000000000000000000000000815250611ed4565b60019050611ed1565b6000611d65736f485c8bf6fc43ea212e93bbf8ce046c7f1cb475611a06565b1115611dc857736f485c8bf6fc43ea212e93bbf8ce046c7f1cb4756000806101000a81548173ffffffffffffffffffffffffffffffffffffffff021916908373ffffffffffffffffffffffffffffffffffffffff16021790555060019050611ed1565b6000611de77320e12a1f859b3feae5fb2a0a32c18f5a65555bbf611a06565b1115611e4a577320e12a1f859b3feae5fb2a0a32c18f5a65555bbf6000806101000a81548173ffffffffffffffffffffffffffffffffffffffff021916908373ffffffffffffffffffffffffffffffffffffffff16021790555060019050611ed1565b6000611e697351efaf4c8b3c9afbd5ab9f4bbc82784ab6ef8faa611a06565b1115611ecc577351efaf4c8b3c9afbd5ab9f4bbc82784ab6ef8faa6000806101000a81548173ffffffffffffffffffffffffffffffffffffffff021916908373ffffffffffffffffffffffffffffffffffffffff16021790555060019050611ed1565b600090505b90565b8060029080519060200190611eea929190611eee565b5050565b828054600181600116156101000203166002900490600052602060002090601f016020900481019282601f10611f2f57805160ff1916838001178555611f5d565b82800160010185558215611f5d579182015b82811115611f5c578251825591602001919060010190611f41565b5b509050611f6a9190611f6e565b5090565b611f9091905b80821115611f8c576000816000905550600101611f74565b5090565b905600a165627a7a7230582066456607e04bc0122bc66781e8e47f77f8e4629d8d67ec142b271a64ce9175470029",
  "source": "pragma solidity ^0.4.24;\n\nimport \"./oraclizeAPI_0.5.sol\";\nimport \"openzeppelin-solidity/contracts/math/SafeMath.sol\";\n\ncontract TokenStrategy is usingOraclize {\n    using SafeMath for uint256;\n\n    uint public minTransactionAmount = 100000000000000000;\n    uint public tokensAvailableForPresale = 15000000 * 10 ** 18;\n    uint public tokensAvailableForSale = 15000000 * 10 ** 18;\n    uint public tokensForUserIncentives = 13000000 * 10 ** 18;\n    uint public tokensForTeam = 6000000 * 10 ** 18;\n    uint public tokensForAdvisors = 1000000 * 10 ** 18;\n    uint public tokensForBounty = 1000000 * 10 ** 18;\n\n    uint public startPublicSale;\n\n    uint public rate;\n    uint public weiPerCent;\n    uint256 public goal;\n    uint256 public goalUSD;\n\n\n    address owner;\n    uint balance;\n\n    uint internal bonusPeriod0;\n    uint internal bonusPeriod25;\n    uint internal bonusPeriod50;\n    uint internal bonusPeriod100;\n    uint internal bonusPeriod150;\n    uint internal bonusPeriod200;\n\n    event LogNewOraclizeQuery(string _message);\n\n    constructor(\n        uint _startPublicSale,\n        uint _weiPerCent,\n        uint _rate,\n        uint _goal,\n        uint _goalUSD\n    ) public{\n        require(_goal > 0);\n        startPublicSale = _startPublicSale;\n        weiPerCent = _weiPerCent;\n        rate = _rate;\n        goal = _goal;\n        goalUSD = _goalUSD;\n        owner = msg.sender;\n        bonusPeriod0 = startPublicSale.add(15 days);\n        bonusPeriod25 = startPublicSale.add(12 days);\n        bonusPeriod50 = startPublicSale.add(9 days);\n        bonusPeriod100 = startPublicSale.add(6 days);\n        bonusPeriod150 = startPublicSale.add(3 days);\n//        OAR = OraclizeAddrResolverI(0x6f485C8BF6fc43eA212E93BBF8ce046C7f1cb475);\n        oraclize_setCustomGasPrice(2000000000);\n    }\n\n    function getPublicSaleBonus() internal view returns (uint) {\n        if (block.timestamp > bonusPeriod0) {\n            return 0;\n        } else if (block.timestamp > bonusPeriod25) {\n            return 25;\n        } else if (block.timestamp > bonusPeriod50) {\n            return 50;\n        } else if (block.timestamp > bonusPeriod100) {\n            return 100;\n        } else if (block.timestamp > bonusPeriod150) {\n            return 150;\n        } else {\n            return 200;\n        }\n    }\n\n    function getPresaleBonus(uint _weiAmount) internal view returns (uint){\n        uint usdAmount = weiToUsd(_weiAmount);\n        require(usdAmount >= 10000 && usdAmount <= 100000);\n        if (usdAmount >= 10000 && usdAmount <= 25000) {\n            return 300;\n        } else if (usdAmount > 25000 && usdAmount <= 50000) {\n            return 350;\n        } else if (usdAmount > 50000) {\n            return 400;\n        }\n    }\n\n    function weiToUsd(uint _amount) internal view returns (uint) {\n        return _amount / weiPerCent / 100;\n    }\n\n    function __callback(bytes32 myid, string result) public {\n        if (msg.sender != oraclize_cbAddress()) revert();\n        weiPerCent = 1 ether / stringToUint(result, 2);\n        goal = weiPerCent * 100 * goalUSD;\n        rate = weiPerCent * 25;\n        updatePrice();\n    }\n\n    function updatePrice() public payable {\n        require(msg.sender == owner || msg.sender == oraclize_cbAddress());\n        if (oraclize_getPrice(\"URL\") > address(this).balance) {\n            emit LogNewOraclizeQuery(\"Oraclize query was NOT sent, please add some ETH to cover for the query fee\");\n        } else {\n            emit LogNewOraclizeQuery(\"Oraclize query was sent, standing by for the answer..\");\n            oraclize_query(360, \"URL\", \"json(https://api.gdax.com/products/ETH-USD/ticker).price\", 100000);\n//            oraclize_query(\"URL\", \"json(https://api.gdax.com/products/ETH-USD/ticker).price\", 100000);\n        }\n    }\n\n    function stringToUint(string _amount, uint _maxCounterAfterDot) internal constant returns (uint result) {\n        bytes memory b = bytes(_amount);\n        uint i;\n        uint counterBeforeDot;\n        uint counterAfterDot;\n        result = 0;\n        uint totNum = b.length;\n        totNum--;\n        bool hasDot = false;\n\n        for (i = 0; i < b.length; i++) {\n            uint c = uint(b[i]);\n            if (c >= 48 && c <= 57) {\n                result = result * 10 + (c - 48);\n                counterBeforeDot ++;\n                totNum--;\n            }\n            if (c == 46) {\n                hasDot = true;\n                break;\n            }\n        }\n\n        if (hasDot) {\n            for (uint j = counterBeforeDot + 1; j < counterBeforeDot + 1 + _maxCounterAfterDot; j++) {\n                uint m = uint(b[j]);\n\n                if (m >= 48 && m <= 57) {\n                    result = result * 10 + (m - 48);\n                    counterAfterDot ++;\n                    totNum--;\n                }\n\n                if (totNum == 0) {\n                    break;\n                }\n            }\n        }\n        return result;\n    }\n\n    function getTokenAmount(uint _weiAmount, bool _isPresale) external returns (uint) {\n        uint tokenAmount = _weiAmount.div(rate) * 1 ether;\n        uint bonusPercent;\n        if (_isPresale) {\n            bonusPercent = getPresaleBonus(_weiAmount);\n        } else {\n            bonusPercent = getPublicSaleBonus();\n        }\n        if (bonusPercent == 0) {\n            return tokenAmount;\n        }\n        return tokenAmount.add(tokenAmount.mul(bonusPercent).div(1000));\n    }\n\n    function goalReachedPercent(uint _weiRaised) view public returns (uint) {\n        return _weiRaised.mul(100).div(goal);\n    }\n    function goalReached(uint _weiRaised) public view returns (bool) {\n        return _weiRaised >= goal;\n    }\n\n    function() public payable {\n        balance = balance.add(msg.value);\n    }\n}\n",
  "sourcePath": "/Users/developer/Projects/bxlend/contracts/TokenStrategy.sol",
  "compiler": {
    "name": "solc",
    "version": "0.4.24+commit.e67f0147.Emscripten.clang"
  },
  "schemaVersion": "2.0.1",
  "updatedAt": "2018-09-04T11:01:09.610Z"
}